:1000000012C02CC02BC02AC029C028C027C026C0BF
:1000100025C024C023C022C021C020C01FC01EC0D4
:100020001DC01CC01BC011241FBECFE5D4E0DEBF25
:10003000CDBF10E0A0E6B0E001C01D92AE36B10722
:10004000E1F710E0A0E6B0E0E6EEF5E002C00590D2
:100050000D92A036B107D9F796D2C3C2D1CFEF9295
:10006000FF920F931F93CF93DF93F82E162F042F39
:10007000E52E662339F4DF91CF911F910F91FF9008
:10008000EF90089580EDABD18F2DFED1802F9E2D66
:100090009C01E9018991F8D19E01201B2117D0F321
:1000A000E5D1DF91CF911F910F91FF90EF900895CF
:1000B000DF93CF930F92CDB7DEB7698361E0AE01D6
:1000C0004F5F5F4FCCDF0F90CF91DF910895CF92BC
:1000D000DF92EF92FF920F931F93CF93DF93182F2E
:1000E000D62E042FC52E662359F410E0812FDF9100
:1000F000CF911F910F91FF90EF90DF90CF900895D7
:1001000080ED6DD1812FC0D18AE18A95F1F781ED23
:1001100066D1ED2CFF240894E108F108802F9C2D76
:100120009C018901C0E0D0E008C0D2D1F8018083F1
:1001300021960F5F1F4FCD1558F4CE15DF05A9F797
:10014000E4D1F801808321960F5F1F4FCD15A8F3EE
:100150001D2D8CD1CBCFAB0161E0B9CFFF920F93B6
:100160001F93DF93CF930F92CDB7DEB7F82E062FF4
:10017000142FBE016F5F7F4FEEDF1123A9F481E0E2
:1001800090E002C0880F991F0A95E2F7682F6095EA
:100190008981682369838F2D8BDF0F90CF91DF9149
:1001A0001F910F91FF90089581E090E002C0880FA9
:1001B000991F0A95E2F76981682BECCF8BE666E020
:1001C00040E0CCCFEF92FF920F931F93DF93CF933A
:1001D0000F92CDB7DEB7E82E062F142FF22E442350
:1001E00041F40F90CF91DF911F910F91FF90EF900D
:1001F00008951982BE016F5F7F4FADDF882389F3B9
:10020000212F30E0402F50E04F5F5F4F421B530BD8
:1002100081E090E002C0880F991F1A95E2F70197DC
:10022000042E02C0880F991F0A94E2F72F2D30E0A8
:1002300002C0220F331F4A95E2F7682F609549816B
:1002400064238223682B69838E2D32DF0F90CF9138
:10025000DF911F910F91FF90EF9008950F931F93DF
:100260008CE665E043E020E0ADDF8CE162E043E056
:1002700020E0A8DF8AE162E043E020E0A3DF88E33A
:1002800060E416DF80E261E013DF8FE16AE010DFF7
:1002900000ED17E0C8010197F1F78CE162E043E05F
:1002A00027E090DF8CE667E042E023E08BDF8BE61F
:1002B00065E041E021E086DFC8010197F1F78BE6B8
:1002C00066E041E020E07EDFC8010197F1F78CE6AF
:1002D00062E043E027E076DF87E367E042E022E088
:1002E00071DF1F910F91089576D08AE18A95F1F719
:1002F00028EE33E048EC50E0CA010197F1F72150B5
:100300003040D1F75BDF80E29EE40197F1F78BE6A6
:1003100062E043E020E056DF8AE162E043E020E073
:1003200051DF89E164E0C4DE8CE164E042E020E07A
:1003300049CFEF92FF920F931F93DF93CF930F92CA
:10034000CDB7DEB7062F142F7901442351F460E0B6
:10035000862F0F90CF91DF911F910F91FF90EF901B
:100360000895BE016F5F7F4FF6DE682F882381F30B
:10037000812F90E0402F50E04F5F5F4F481B590B9B
:1003800021E030E0012E02C0220F331F0A94E2F771
:1003900021503040042E02C0220F331F0A94E2F78E
:1003A0008981822390E002C0959587954A95E2F76E
:1003B000F7018083CDCF85E766E046E020E630E0B8
:1003C000B8DF8091600090E0843311F0892F0895A8
:1003D00091E0892F089511B880E280B90895282FFF
:1003E00084EA86BF8FEF90E0A0E0B0E00BC00197F9
:1003F000A109B1098F3F3FEF93073FEFA3073FEFFD
:10040000B30749F006B607FEF2CF0097A105B10584
:1004100011F481E0089581B1887F883011F0803136
:10042000C1F723B984E886BF8FEF90E0A0E0B0E089
:100430000BC00197A109B1098F3F2FEF92072FEF52
:10044000A2072FEFB20739F006B607FEF2CF0097EA
:10045000A105B105F1F291B1987F983129F080E0C2
:100460009034C1F281E0089580E0089584E986BF68
:1004700080E090E005C0019621E08030920719F0FD
:1004800006B604FCF8CF089583B984E886BF8FEFE1
:1004900090E0A0E0B0E00BC00197A109B1098F3F47
:1004A0002FEF92072FEFA2072FEFB20751F006B6FA
:1004B00007FEF2CF0097A105B10519F491E0892F4D
:1004C000089581B190E0887F8832C1F7892F08951F
:1004D00084EC86BF8FEF90E0A0E0B0E00BC0019706
:1004E000A109B1098F3F2FEF92072FEFA2072FEF3E
:1004F000B20749F006B607FEF2CF0097A105B10595
:1005000011F480E0089583B1089584E886BF8FEFE9
:1005100090E0A0E0B0E00BC00197A109B1098F3FC6
:100520002FEF92072FEFA2072FEFB20749F006B681
:1005300007FEF2CF0097A105B10511F480E0089500
:1005400083B108959C01FC01EE0FFF1FEE0FFF1F0A
:10055000EE0FFF1F220F331FE20FF31F1E161F06A1
:100560008CF460E070E048EC50E028EE33E0CA0123
:100570000197F1F721503040D1F76F5F7F4F6E1731
:100580007F079CF3089587B3866087BB81E090E086
:10059000D9DF7894A9DE24EF31E048EC50E0CA01BD
:1005A0000197F1F721503040D1F705DF8823A9F0FA
:1005B000C19A84EF91E028EC30E0F9013197F1F72E
:1005C0000197D9F74BDE9B9B03C0C2989B99FDCF47
:1005D000C29A81E090E0B6DFF6CFC19884EF91E057
:0605E000EACFF894FFCF02
:00000001FF
